{
  "contractName": "BVideo",
  "abi": [
    {
      "inputs": [],
      "stateMutability": "nonpayable",
      "type": "constructor"
    },
    {
      "anonymous": false,
      "inputs": [
        {
          "indexed": false,
          "internalType": "uint256",
          "name": "id",
          "type": "uint256"
        },
        {
          "indexed": false,
          "internalType": "string",
          "name": "vhash",
          "type": "string"
        },
        {
          "indexed": false,
          "internalType": "string",
          "name": "title",
          "type": "string"
        },
        {
          "indexed": false,
          "internalType": "address",
          "name": "uploader",
          "type": "address"
        }
      ],
      "name": "videoUploadedEvent",
      "type": "event"
    },
    {
      "inputs": [],
      "name": "name",
      "outputs": [
        {
          "internalType": "string",
          "name": "",
          "type": "string"
        }
      ],
      "stateMutability": "view",
      "type": "function",
      "constant": true
    },
    {
      "inputs": [],
      "name": "vCount",
      "outputs": [
        {
          "internalType": "uint256",
          "name": "",
          "type": "uint256"
        }
      ],
      "stateMutability": "view",
      "type": "function",
      "constant": true
    },
    {
      "inputs": [
        {
          "internalType": "uint256",
          "name": "",
          "type": "uint256"
        }
      ],
      "name": "videos",
      "outputs": [
        {
          "internalType": "uint256",
          "name": "id",
          "type": "uint256"
        },
        {
          "internalType": "string",
          "name": "videoHash",
          "type": "string"
        },
        {
          "internalType": "string",
          "name": "title",
          "type": "string"
        },
        {
          "internalType": "address",
          "name": "author",
          "type": "address"
        }
      ],
      "stateMutability": "view",
      "type": "function",
      "constant": true
    },
    {
      "inputs": [
        {
          "internalType": "string",
          "name": "_hash",
          "type": "string"
        },
        {
          "internalType": "string",
          "name": "_title",
          "type": "string"
        }
      ],
      "name": "videoUpload",
      "outputs": [],
      "stateMutability": "nonpayable",
      "type": "function"
    }
  ],
  "bytecode": "0x60806040526040518060400160405280600681526020017f42766964656f00000000000000000000000000000000000000000000000000008152506000908051906020019061004f929190610067565b50600060015534801561006157600080fd5b5061016b565b8280546100739061010a565b90600052602060002090601f01602090048101928261009557600085556100dc565b82601f106100ae57805160ff19168380011785556100dc565b828001600101855582156100dc579182015b828111156100db5782518255916020019190600101906100c0565b5b5090506100e991906100ed565b5090565b5b808211156101065760008160009055506001016100ee565b5090565b6000600282049050600182168061012257607f821691505b602082108114156101365761013561013c565b5b50919050565b7f4e487b7100000000000000000000000000000000000000000000000000000000600052602260045260246000fd5b6109c58061017a6000396000f3fe608060405234801561001057600080fd5b5060043610610069576000357c01000000000000000000000000000000000000000000000000000000009004806306fdde031461006e5780633cdd75cd1461008c578063d684b679146100aa578063e6821bf5146100c6575b600080fd5b6100766100f9565b60405161008391906106b4565b60405180910390f35b610094610187565b6040516100a191906106f6565b60405180910390f35b6100c460048036038101906100bf9190610588565b61018d565b005b6100e060048036038101906100db91906105f4565b610308565b6040516100f09493929190610711565b60405180910390f35b600080546101069061085f565b80601f01602080910402602001604051908101604052809291908181526020018280546101329061085f565b801561017f5780601f106101545761010080835404028352916020019161017f565b820191906000526020600020905b81548152906001019060200180831161016257829003601f168201915b505050505081565b60015481565b60008251116101d1576040517f08c379a00000000000000000000000000000000000000000000000000000000081526004016101c8906106d6565b60405180910390fd5b604051806080016040528060015481526020018381526020018281526020013373ffffffffffffffffffffffffffffffffffffffff16815250600260006001548152602001908152602001600020600082015181600001556020820151816001019080519060200190610245929190610468565b506040820151816002019080519060200190610262929190610468565b5060608201518160030160006101000a81548173ffffffffffffffffffffffffffffffffffffffff021916908373ffffffffffffffffffffffffffffffffffffffff160217905550905050600160008154809291906102c090610891565b91905055507f3d2b173976f210def6ee3b035cb76fd4eeb88697aeff2ab970fd0225ff55ee626001548383336040516102fc9493929190610711565b60405180910390a15050565b60026020528060005260406000206000915090508060000154908060010180546103319061085f565b80601f016020809104026020016040519081016040528092919081815260200182805461035d9061085f565b80156103aa5780601f1061037f576101008083540402835291602001916103aa565b820191906000526020600020905b81548152906001019060200180831161038d57829003601f168201915b5050505050908060020180546103bf9061085f565b80601f01602080910402602001604051908101604052809291908181526020018280546103eb9061085f565b80156104385780601f1061040d57610100808354040283529160200191610438565b820191906000526020600020905b81548152906001019060200180831161041b57829003601f168201915b5050505050908060030160009054906101000a900473ffffffffffffffffffffffffffffffffffffffff16905084565b8280546104749061085f565b90600052602060002090601f01602090048101928261049657600085556104dd565b82601f106104af57805160ff19168380011785556104dd565b828001600101855582156104dd579182015b828111156104dc5782518255916020019190600101906104c1565b5b5090506104ea91906104ee565b5090565b5b808211156105075760008160009055506001016104ef565b5090565b600061051e61051984610795565b610764565b90508281526020810184848401111561053657600080fd5b61054184828561081d565b509392505050565b600082601f83011261055a57600080fd5b813561056a84826020860161050b565b91505092915050565b60008135905061058281610978565b92915050565b6000806040838503121561059b57600080fd5b600083013567ffffffffffffffff8111156105b557600080fd5b6105c185828601610549565b925050602083013567ffffffffffffffff8111156105de57600080fd5b6105ea85828601610549565b9150509250929050565b60006020828403121561060657600080fd5b600061061484828501610573565b91505092915050565b610626816107e1565b82525050565b6000610637826107c5565b61064181856107d0565b935061065181856020860161082c565b61065a81610967565b840191505092915050565b6000610672601a836107d0565b91507f566964656f2048617368206973206e6f742072656365697665640000000000006000830152602082019050919050565b6106ae81610813565b82525050565b600060208201905081810360008301526106ce818461062c565b905092915050565b600060208201905081810360008301526106ef81610665565b9050919050565b600060208201905061070b60008301846106a5565b92915050565b600060808201905061072660008301876106a5565b8181036020830152610738818661062c565b9050818103604083015261074c818561062c565b905061075b606083018461061d565b95945050505050565b6000604051905081810181811067ffffffffffffffff8211171561078b5761078a610938565b5b8060405250919050565b600067ffffffffffffffff8211156107b0576107af610938565b5b601f19601f8301169050602081019050919050565b600081519050919050565b600082825260208201905092915050565b60006107ec826107f3565b9050919050565b600073ffffffffffffffffffffffffffffffffffffffff82169050919050565b6000819050919050565b82818337600083830152505050565b60005b8381101561084a57808201518184015260208101905061082f565b83811115610859576000848401525b50505050565b6000600282049050600182168061087757607f821691505b6020821081141561088b5761088a610909565b5b50919050565b600061089c82610813565b91507fffffffffffffffffffffffffffffffffffffffffffffffffffffffffffffffff8214156108cf576108ce6108da565b5b600182019050919050565b7f4e487b7100000000000000000000000000000000000000000000000000000000600052601160045260246000fd5b7f4e487b7100000000000000000000000000000000000000000000000000000000600052602260045260246000fd5b7f4e487b7100000000000000000000000000000000000000000000000000000000600052604160045260246000fd5b6000601f19601f8301169050919050565b61098181610813565b811461098c57600080fd5b5056fea2646970667358221220c0577e02f621c4907b0607e6046aaafe907c32c912bcdcb5d1c3ad1de681c8f264736f6c63430008000033",
  "immutableReferences": {},
  "source": "pragma solidity ^0.8.0;\n\ncontract BVideo{\n    \n    string public name = 'Bvideo';\n    uint public vCount = 0;\n\n    struct Video{\n        uint id;\n        string videoHash;\n        string title;\n        address author;\n    }\n\n    mapping(uint => Video) public videos;\n\n    event videoUploadedEvent(uint id, string vhash, string title, address uploader);\n\n    constructor(){\n\n    }\n\n    function videoUpload(string memory _hash, string memory _title) public{\n        require(bytes(_hash).length > 0, 'Video Hash is not received');\n\n        videos[vCount] = Video(vCount, _hash, _title, msg.sender );\n        vCount++;\n\n        emit videoUploadedEvent(vCount, _hash, _title, msg.sender);\n    }\n}",
  "sourcePath": "/home/sulaman/Documents/BlockchainProjects/check/blockchain-app/src/contracts/BVideo.sol",
  "compiler": {
    "name": "solc",
    "version": "0.8.0+commit.c7dfd78e.Emscripten.clang"
  },
  "schemaVersion": "3.4.1",
  "updatedAt": "2021-06-08T18:46:59.106Z",
  "networkType": "ethereum",
  "devdoc": {
    "kind": "dev",
    "methods": {},
    "version": 1
  },
  "userdoc": {
    "kind": "user",
    "methods": {},
    "version": 1
  }
}