{
  "contractName": "NoLossToken",
  "abi": [
    {
      "inputs": [],
      "stateMutability": "payable",
      "type": "constructor",
      "payable": true
    },
    {
      "anonymous": false,
      "inputs": [
        {
          "indexed": true,
          "internalType": "address",
          "name": "owner",
          "type": "address"
        },
        {
          "indexed": true,
          "internalType": "address",
          "name": "spender",
          "type": "address"
        },
        {
          "indexed": false,
          "internalType": "uint256",
          "name": "value",
          "type": "uint256"
        }
      ],
      "name": "Approval",
      "type": "event"
    },
    {
      "anonymous": false,
      "inputs": [
        {
          "indexed": false,
          "internalType": "address",
          "name": "freezer",
          "type": "address"
        },
        {
          "indexed": false,
          "internalType": "address",
          "name": "minter",
          "type": "address"
        },
        {
          "indexed": false,
          "internalType": "uint256",
          "name": "amount",
          "type": "uint256"
        }
      ],
      "name": "MintCall",
      "type": "event"
    },
    {
      "anonymous": false,
      "inputs": [
        {
          "indexed": true,
          "internalType": "address",
          "name": "from",
          "type": "address"
        },
        {
          "indexed": false,
          "internalType": "address",
          "name": "to",
          "type": "address"
        }
      ],
      "name": "MinterChanged",
      "type": "event"
    },
    {
      "anonymous": false,
      "inputs": [
        {
          "indexed": true,
          "internalType": "address",
          "name": "from",
          "type": "address"
        },
        {
          "indexed": true,
          "internalType": "address",
          "name": "to",
          "type": "address"
        },
        {
          "indexed": false,
          "internalType": "uint256",
          "name": "value",
          "type": "uint256"
        }
      ],
      "name": "Transfer",
      "type": "event"
    },
    {
      "anonymous": false,
      "inputs": [
        {
          "indexed": true,
          "internalType": "address",
          "name": "from",
          "type": "address"
        },
        {
          "indexed": false,
          "internalType": "address",
          "name": "to",
          "type": "address"
        }
      ],
      "name": "commissionAddressChanged",
      "type": "event"
    },
    {
      "inputs": [
        {
          "internalType": "address",
          "name": "owner",
          "type": "address"
        },
        {
          "internalType": "address",
          "name": "spender",
          "type": "address"
        }
      ],
      "name": "allowance",
      "outputs": [
        {
          "internalType": "uint256",
          "name": "",
          "type": "uint256"
        }
      ],
      "stateMutability": "view",
      "type": "function",
      "constant": true
    },
    {
      "inputs": [
        {
          "internalType": "address",
          "name": "spender",
          "type": "address"
        },
        {
          "internalType": "uint256",
          "name": "amount",
          "type": "uint256"
        }
      ],
      "name": "approve",
      "outputs": [
        {
          "internalType": "bool",
          "name": "",
          "type": "bool"
        }
      ],
      "stateMutability": "nonpayable",
      "type": "function"
    },
    {
      "inputs": [
        {
          "internalType": "address",
          "name": "account",
          "type": "address"
        }
      ],
      "name": "balanceOf",
      "outputs": [
        {
          "internalType": "uint256",
          "name": "",
          "type": "uint256"
        }
      ],
      "stateMutability": "view",
      "type": "function",
      "constant": true
    },
    {
      "inputs": [],
      "name": "commissionAddress",
      "outputs": [
        {
          "internalType": "address payable",
          "name": "",
          "type": "address"
        }
      ],
      "stateMutability": "view",
      "type": "function",
      "constant": true
    },
    {
      "inputs": [],
      "name": "commissionAmount",
      "outputs": [
        {
          "internalType": "uint256",
          "name": "",
          "type": "uint256"
        }
      ],
      "stateMutability": "view",
      "type": "function",
      "constant": true
    },
    {
      "inputs": [],
      "name": "decimals",
      "outputs": [
        {
          "internalType": "uint8",
          "name": "",
          "type": "uint8"
        }
      ],
      "stateMutability": "view",
      "type": "function",
      "constant": true
    },
    {
      "inputs": [
        {
          "internalType": "address",
          "name": "spender",
          "type": "address"
        },
        {
          "internalType": "uint256",
          "name": "subtractedValue",
          "type": "uint256"
        }
      ],
      "name": "decreaseAllowance",
      "outputs": [
        {
          "internalType": "bool",
          "name": "",
          "type": "bool"
        }
      ],
      "stateMutability": "nonpayable",
      "type": "function"
    },
    {
      "inputs": [
        {
          "internalType": "address",
          "name": "spender",
          "type": "address"
        },
        {
          "internalType": "uint256",
          "name": "addedValue",
          "type": "uint256"
        }
      ],
      "name": "increaseAllowance",
      "outputs": [
        {
          "internalType": "bool",
          "name": "",
          "type": "bool"
        }
      ],
      "stateMutability": "nonpayable",
      "type": "function"
    },
    {
      "inputs": [],
      "name": "minter",
      "outputs": [
        {
          "internalType": "address payable",
          "name": "",
          "type": "address"
        }
      ],
      "stateMutability": "view",
      "type": "function",
      "constant": true
    },
    {
      "inputs": [],
      "name": "name",
      "outputs": [
        {
          "internalType": "string",
          "name": "",
          "type": "string"
        }
      ],
      "stateMutability": "view",
      "type": "function",
      "constant": true
    },
    {
      "inputs": [],
      "name": "owner",
      "outputs": [
        {
          "internalType": "address payable",
          "name": "",
          "type": "address"
        }
      ],
      "stateMutability": "view",
      "type": "function",
      "constant": true
    },
    {
      "inputs": [],
      "name": "symbol",
      "outputs": [
        {
          "internalType": "string",
          "name": "",
          "type": "string"
        }
      ],
      "stateMutability": "view",
      "type": "function",
      "constant": true
    },
    {
      "inputs": [],
      "name": "totalSupply",
      "outputs": [
        {
          "internalType": "uint256",
          "name": "",
          "type": "uint256"
        }
      ],
      "stateMutability": "view",
      "type": "function",
      "constant": true
    },
    {
      "inputs": [
        {
          "internalType": "address",
          "name": "recipient",
          "type": "address"
        },
        {
          "internalType": "uint256",
          "name": "amount",
          "type": "uint256"
        }
      ],
      "name": "transfer",
      "outputs": [
        {
          "internalType": "bool",
          "name": "",
          "type": "bool"
        }
      ],
      "stateMutability": "nonpayable",
      "type": "function"
    },
    {
      "inputs": [
        {
          "internalType": "address",
          "name": "sender",
          "type": "address"
        },
        {
          "internalType": "address",
          "name": "recipient",
          "type": "address"
        },
        {
          "internalType": "uint256",
          "name": "amount",
          "type": "uint256"
        }
      ],
      "name": "transferFrom",
      "outputs": [
        {
          "internalType": "bool",
          "name": "",
          "type": "bool"
        }
      ],
      "stateMutability": "nonpayable",
      "type": "function"
    },
    {
      "inputs": [
        {
          "internalType": "address",
          "name": "NoLossContract",
          "type": "address"
        }
      ],
      "name": "passMinterRole",
      "outputs": [
        {
          "internalType": "bool",
          "name": "",
          "type": "bool"
        }
      ],
      "stateMutability": "payable",
      "type": "function",
      "payable": true
    },
    {
      "inputs": [
        {
          "internalType": "address",
          "name": "freezerAddress",
          "type": "address"
        },
        {
          "internalType": "uint256",
          "name": "amount",
          "type": "uint256"
        }
      ],
      "name": "mint",
      "outputs": [],
      "stateMutability": "payable",
      "type": "function",
      "payable": true
    }
  ],
  "bytecode": "0x60806040526040518060400160405280600c81526020017f4e6f4c6f737320546f6b656e00000000000000000000000000000000000000008152506040518060400160405280600381526020017f4e4c5400000000000000000000000000000000000000000000000000000000008152508160039080519060200190620000889291906200012c565b508060049080519060200190620000a19291906200012c565b50505033600560006101000a81548173ffffffffffffffffffffffffffffffffffffffff021916908373ffffffffffffffffffffffffffffffffffffffff16021790555033600660006101000a81548173ffffffffffffffffffffffffffffffffffffffff021916908373ffffffffffffffffffffffffffffffffffffffff16021790555062000241565b8280546200013a90620001dc565b90600052602060002090601f0160209004810192826200015e5760008555620001aa565b82601f106200017957805160ff1916838001178555620001aa565b82800160010185558215620001aa579182015b82811115620001a95782518255916020019190600101906200018c565b5b509050620001b99190620001bd565b5090565b5b80821115620001d8576000816000905550600101620001be565b5090565b60006002820490506001821680620001f557607f821691505b602082108114156200020c576200020b62000212565b5b50919050565b7f4e487b7100000000000000000000000000000000000000000000000000000000600052602260045260246000fd5b611c3e80620002516000396000f3fe60806040526004361061011b576000357c01000000000000000000000000000000000000000000000000000000009004806370a08231116100b257806395d89b411161008157806395d89b411461035d578063a457c2d714610388578063a9059cbb146103c5578063d7fc5b1514610402578063dd62ed3e146104325761011b565b806370a082311461029f5780637a6e0880146102dc5780638da5cb5b14610307578063931742d3146103325761011b565b806323b872dd116100ee57806323b872dd146101de578063313ce5671461021b578063395093511461024657806340c10f19146102835761011b565b806306fdde0314610120578063075461721461014b578063095ea7b31461017657806318160ddd146101b3575b600080fd5b34801561012c57600080fd5b5061013561046f565b6040516101429190611791565b60405180910390f35b34801561015757600080fd5b50610160610501565b60405161016d9190611724565b60405180910390f35b34801561018257600080fd5b5061019d600480360381019061019891906112f0565b610527565b6040516101aa9190611776565b60405180910390f35b3480156101bf57600080fd5b506101c8610545565b6040516101d591906118d3565b60405180910390f35b3480156101ea57600080fd5b50610205600480360381019061020091906112a1565b61054f565b6040516102129190611776565b60405180910390f35b34801561022757600080fd5b50610230610650565b60405161023d91906118ee565b60405180910390f35b34801561025257600080fd5b5061026d600480360381019061026891906112f0565b610659565b60405161027a9190611776565b60405180910390f35b61029d600480360381019061029891906112f0565b610705565b005b3480156102ab57600080fd5b506102c660048036038101906102c1919061123c565b610820565b6040516102d391906118d3565b60405180910390f35b3480156102e857600080fd5b506102f1610868565b6040516102fe91906118d3565b60405180910390f35b34801561031357600080fd5b5061031c61086e565b6040516103299190611724565b60405180910390f35b34801561033e57600080fd5b50610347610894565b6040516103549190611724565b60405180910390f35b34801561036957600080fd5b506103726108ba565b60405161037f9190611791565b60405180910390f35b34801561039457600080fd5b506103af60048036038101906103aa91906112f0565b61094c565b6040516103bc9190611776565b60405180910390f35b3480156103d157600080fd5b506103ec60048036038101906103e791906112f0565b610a40565b6040516103f99190611776565b60405180910390f35b61041c6004803603810190610417919061123c565b610a5e565b6040516104299190611776565b60405180910390f35b34801561043e57600080fd5b5061045960048036038101906104549190611265565b610be0565b60405161046691906118d3565b60405180910390f35b60606003805461047e90611b0a565b80601f01602080910402602001604051908101604052809291908181526020018280546104aa90611b0a565b80156104f75780601f106104cc576101008083540402835291602001916104f7565b820191906000526020600020905b8154815290600101906020018083116104da57829003601f168201915b5050505050905090565b600660009054906101000a900473ffffffffffffffffffffffffffffffffffffffff1681565b600061053b610534610c67565b8484610c6f565b6001905092915050565b6000600254905090565b600061055c848484610e3a565b6000600160008673ffffffffffffffffffffffffffffffffffffffff1673ffffffffffffffffffffffffffffffffffffffff16815260200190815260200160002060006105a7610c67565b73ffffffffffffffffffffffffffffffffffffffff1673ffffffffffffffffffffffffffffffffffffffff16815260200190815260200160002054905082811015610627576040517f08c379a000000000000000000000000000000000000000000000000000000000815260040161061e90611833565b60405180910390fd5b61064485610633610c67565b858461063f9190611a06565b610c6f565b60019150509392505050565b60006012905090565b60006106fb610666610c67565b848460016000610674610c67565b73ffffffffffffffffffffffffffffffffffffffff1673ffffffffffffffffffffffffffffffffffffffff16815260200190815260200160002060008873ffffffffffffffffffffffffffffffffffffffff1673ffffffffffffffffffffffffffffffffffffffff168152602001908152602001600020546106f69190611925565b610c6f565b6001905092915050565b7f403423d4997b555aa9bad454d409d87eb7acac15b9496d2bd675f0098037a61882600560009054906101000a900473ffffffffffffffffffffffffffffffffffffffff168360405161075a9392919061173f565b60405180910390a1600560009054906101000a900473ffffffffffffffffffffffffffffffffffffffff16600760006101000a81548173ffffffffffffffffffffffffffffffffffffffff021916908373ffffffffffffffffffffffffffffffffffffffff1602179055506064600a826107d491906119ac565b6107de919061197b565b6008819055506107ee82826110b9565b61081c600760009054906101000a900473ffffffffffffffffffffffffffffffffffffffff166008546110b9565b5050565b60008060008373ffffffffffffffffffffffffffffffffffffffff1673ffffffffffffffffffffffffffffffffffffffff168152602001908152602001600020549050919050565b60085481565b600560009054906101000a900473ffffffffffffffffffffffffffffffffffffffff1681565b600760009054906101000a900473ffffffffffffffffffffffffffffffffffffffff1681565b6060600480546108c990611b0a565b80601f01602080910402602001604051908101604052809291908181526020018280546108f590611b0a565b80156109425780601f1061091757610100808354040283529160200191610942565b820191906000526020600020905b81548152906001019060200180831161092557829003601f168201915b5050505050905090565b6000806001600061095b610c67565b73ffffffffffffffffffffffffffffffffffffffff1673ffffffffffffffffffffffffffffffffffffffff16815260200190815260200160002060008573ffffffffffffffffffffffffffffffffffffffff1673ffffffffffffffffffffffffffffffffffffffff16815260200190815260200160002054905082811015610a18576040517f08c379a0000000000000000000000000000000000000000000000000000000008152600401610a0f90611893565b60405180910390fd5b610a35610a23610c67565b858584610a309190611a06565b610c6f565b600191505092915050565b6000610a54610a4d610c67565b8484610e3a565b6001905092915050565b6000600660009054906101000a900473ffffffffffffffffffffffffffffffffffffffff1673ffffffffffffffffffffffffffffffffffffffff163373ffffffffffffffffffffffffffffffffffffffff161480610b095750600560009054906101000a900473ffffffffffffffffffffffffffffffffffffffff1673ffffffffffffffffffffffffffffffffffffffff163373ffffffffffffffffffffffffffffffffffffffff16145b610b48576040517f08c379a0000000000000000000000000000000000000000000000000000000008152600401610b3f90611813565b60405180910390fd5b81600660006101000a81548173ffffffffffffffffffffffffffffffffffffffff021916908373ffffffffffffffffffffffffffffffffffffffff1602179055503373ffffffffffffffffffffffffffffffffffffffff167f3b0007eb941cf645526cbb3a4fdaecda9d28ce4843167d9263b536a1f1edc0f683604051610bcf9190611709565b60405180910390a260019050919050565b6000600160008473ffffffffffffffffffffffffffffffffffffffff1673ffffffffffffffffffffffffffffffffffffffff16815260200190815260200160002060008373ffffffffffffffffffffffffffffffffffffffff1673ffffffffffffffffffffffffffffffffffffffff16815260200190815260200160002054905092915050565b600033905090565b600073ffffffffffffffffffffffffffffffffffffffff168373ffffffffffffffffffffffffffffffffffffffff161415610cdf576040517f08c379a0000000000000000000000000000000000000000000000000000000008152600401610cd690611873565b60405180910390fd5b600073ffffffffffffffffffffffffffffffffffffffff168273ffffffffffffffffffffffffffffffffffffffff161415610d4f576040517f08c379a0000000000000000000000000000000000000000000000000000000008152600401610d46906117d3565b60405180910390fd5b80600160008573ffffffffffffffffffffffffffffffffffffffff1673ffffffffffffffffffffffffffffffffffffffff16815260200190815260200160002060008473ffffffffffffffffffffffffffffffffffffffff1673ffffffffffffffffffffffffffffffffffffffff168152602001908152602001600020819055508173ffffffffffffffffffffffffffffffffffffffff168373ffffffffffffffffffffffffffffffffffffffff167f8c5be1e5ebec7d5bd14f71427d1e84f3dd0314c0f7b2291e5b200ac8c7c3b92583604051610e2d91906118d3565b60405180910390a3505050565b600073ffffffffffffffffffffffffffffffffffffffff168373ffffffffffffffffffffffffffffffffffffffff161415610eaa576040517f08c379a0000000000000000000000000000000000000000000000000000000008152600401610ea190611853565b60405180910390fd5b600073ffffffffffffffffffffffffffffffffffffffff168273ffffffffffffffffffffffffffffffffffffffff161415610f1a576040517f08c379a0000000000000000000000000000000000000000000000000000000008152600401610f11906117b3565b60405180910390fd5b610f2583838361120d565b60008060008573ffffffffffffffffffffffffffffffffffffffff1673ffffffffffffffffffffffffffffffffffffffff16815260200190815260200160002054905081811015610fab576040517f08c379a0000000000000000000000000000000000000000000000000000000008152600401610fa2906117f3565b60405180910390fd5b8181610fb79190611a06565b6000808673ffffffffffffffffffffffffffffffffffffffff1673ffffffffffffffffffffffffffffffffffffffff16815260200190815260200160002081905550816000808573ffffffffffffffffffffffffffffffffffffffff1673ffffffffffffffffffffffffffffffffffffffff16815260200190815260200160002060008282546110479190611925565b925050819055508273ffffffffffffffffffffffffffffffffffffffff168473ffffffffffffffffffffffffffffffffffffffff167fddf252ad1be2c89b69c2b068fc378daa952ba7f163c4a11628f55a4df523b3ef846040516110ab91906118d3565b60405180910390a350505050565b600073ffffffffffffffffffffffffffffffffffffffff168273ffffffffffffffffffffffffffffffffffffffff161415611129576040517f08c379a0000000000000000000000000000000000000000000000000000000008152600401611120906118b3565b60405180910390fd5b6111356000838361120d565b80600260008282546111479190611925565b92505081905550806000808473ffffffffffffffffffffffffffffffffffffffff1673ffffffffffffffffffffffffffffffffffffffff168152602001908152602001600020600082825461119c9190611925565b925050819055508173ffffffffffffffffffffffffffffffffffffffff16600073ffffffffffffffffffffffffffffffffffffffff167fddf252ad1be2c89b69c2b068fc378daa952ba7f163c4a11628f55a4df523b3ef8360405161120191906118d3565b60405180910390a35050565b505050565b60008135905061122181611bda565b92915050565b60008135905061123681611bf1565b92915050565b60006020828403121561124e57600080fd5b600061125c84828501611212565b91505092915050565b6000806040838503121561127857600080fd5b600061128685828601611212565b925050602061129785828601611212565b9150509250929050565b6000806000606084860312156112b657600080fd5b60006112c486828701611212565b93505060206112d586828701611212565b92505060406112e686828701611227565b9150509250925092565b6000806040838503121561130357600080fd5b600061131185828601611212565b925050602061132285828601611227565b9150509250929050565b61133581611aa1565b82525050565b61134481611a4c565b82525050565b61135381611a3a565b82525050565b61136281611a5e565b82525050565b600061137382611909565b61137d8185611914565b935061138d818560208601611ad7565b61139681611bc9565b840191505092915050565b60006113ae602383611914565b91507f45524332303a207472616e7366657220746f20746865207a65726f206164647260008301527f65737300000000000000000000000000000000000000000000000000000000006020830152604082019050919050565b6000611414602283611914565b91507f45524332303a20617070726f766520746f20746865207a65726f20616464726560008301527f73730000000000000000000000000000000000000000000000000000000000006020830152604082019050919050565b600061147a602683611914565b91507f45524332303a207472616e7366657220616d6f756e742065786365656473206260008301527f616c616e636500000000000000000000000000000000000000000000000000006020830152604082019050919050565b60006114e0600e83611914565b91507f4e6f7420417574686f72697a65640000000000000000000000000000000000006000830152602082019050919050565b6000611520602883611914565b91507f45524332303a207472616e7366657220616d6f756e742065786365656473206160008301527f6c6c6f77616e63650000000000000000000000000000000000000000000000006020830152604082019050919050565b6000611586602583611914565b91507f45524332303a207472616e736665722066726f6d20746865207a65726f20616460008301527f64726573730000000000000000000000000000000000000000000000000000006020830152604082019050919050565b60006115ec602483611914565b91507f45524332303a20617070726f76652066726f6d20746865207a65726f2061646460008301527f72657373000000000000000000000000000000000000000000000000000000006020830152604082019050919050565b6000611652602583611914565b91507f45524332303a2064656372656173656420616c6c6f77616e63652062656c6f7760008301527f207a65726f0000000000000000000000000000000000000000000000000000006020830152604082019050919050565b60006116b8601f83611914565b91507f45524332303a206d696e7420746f20746865207a65726f2061646472657373006000830152602082019050919050565b6116f481611a8a565b82525050565b61170381611a94565b82525050565b600060208201905061171e600083018461134a565b92915050565b6000602082019050611739600083018461133b565b92915050565b6000606082019050611754600083018661134a565b611761602083018561132c565b61176e60408301846116eb565b949350505050565b600060208201905061178b6000830184611359565b92915050565b600060208201905081810360008301526117ab8184611368565b905092915050565b600060208201905081810360008301526117cc816113a1565b9050919050565b600060208201905081810360008301526117ec81611407565b9050919050565b6000602082019050818103600083015261180c8161146d565b9050919050565b6000602082019050818103600083015261182c816114d3565b9050919050565b6000602082019050818103600083015261184c81611513565b9050919050565b6000602082019050818103600083015261186c81611579565b9050919050565b6000602082019050818103600083015261188c816115df565b9050919050565b600060208201905081810360008301526118ac81611645565b9050919050565b600060208201905081810360008301526118cc816116ab565b9050919050565b60006020820190506118e860008301846116eb565b92915050565b600060208201905061190360008301846116fa565b92915050565b600081519050919050565b600082825260208201905092915050565b600061193082611a8a565b915061193b83611a8a565b9250827fffffffffffffffffffffffffffffffffffffffffffffffffffffffffffffffff038211156119705761196f611b3c565b5b828201905092915050565b600061198682611a8a565b915061199183611a8a565b9250826119a1576119a0611b6b565b5b828204905092915050565b60006119b782611a8a565b91506119c283611a8a565b9250817fffffffffffffffffffffffffffffffffffffffffffffffffffffffffffffffff04831182151516156119fb576119fa611b3c565b5b828202905092915050565b6000611a1182611a8a565b9150611a1c83611a8a565b925082821015611a2f57611a2e611b3c565b5b828203905092915050565b6000611a4582611a6a565b9050919050565b6000611a5782611a6a565b9050919050565b60008115159050919050565b600073ffffffffffffffffffffffffffffffffffffffff82169050919050565b6000819050919050565b600060ff82169050919050565b6000611aac82611ab3565b9050919050565b6000611abe82611ac5565b9050919050565b6000611ad082611a6a565b9050919050565b60005b83811015611af5578082015181840152602081019050611ada565b83811115611b04576000848401525b50505050565b60006002820490506001821680611b2257607f821691505b60208210811415611b3657611b35611b9a565b5b50919050565b7f4e487b7100000000000000000000000000000000000000000000000000000000600052601160045260246000fd5b7f4e487b7100000000000000000000000000000000000000000000000000000000600052601260045260246000fd5b7f4e487b7100000000000000000000000000000000000000000000000000000000600052602260045260246000fd5b6000601f19601f8301169050919050565b611be381611a3a565b8114611bee57600080fd5b50565b611bfa81611a8a565b8114611c0557600080fd5b5056fea26469706673582212209a0b75e26da617ef9a5fd6d7848e2e01ca99f51a022ab549cf66e3855215fac164736f6c63430008000033",
  "immutableReferences": {},
  "source": "// SPDX-License-Identifier: GPL-3.0\n\npragma solidity >=0.7.0 <0.9.0;\n\nimport \"@openzeppelin/contracts/token/ERC20/ERC20.sol\";\n\ncontract NoLossToken is ERC20 {\n    \n  //add minter variable\n  address payable public owner;\n  address payable public minter;\n  address payable public commissionAddress;\n  uint public commissionAmount;\n \n\n  //add minter changed event\n  event MinterChanged(address indexed from, address to);\n\n  //Mint fun is executed\n  event MintCall(address freezer, address minter, uint256 amount);\n\n  //add commission address changed event\n  event commissionAddressChanged(address indexed from, address to);\n\n  constructor() payable ERC20(\"NoLoss Token\", \"NLT\") {\n    //asign initial minter\n    owner = payable(address(msg.sender));\n    minter = payable(address(msg.sender));\n  }\n  \n  modifier authorizedToMint(){\n        require(msg.sender == minter || msg.sender == owner, \"Not Authorized\");\n        _;\n    }\n\n  //Add NoLossContract to Minter role\n  function passMinterRole(address NoLossContract) public payable authorizedToMint returns (bool){\n   // require(msg.sender==minter, 'Error, only owner can change pass minter role');\n    minter = payable(address(NoLossContract));\n\n    emit MinterChanged(msg.sender, NoLossContract);\n    return true;\n  }\n//authorizedToMint\n   //Mint Token function\n  function mint(address freezerAddress, uint256 amount) public payable  {\n    //check if msg.sender have minter role\n    //require(msg.sender == minter || msg.sender == owner, 'Error, only NoLoss Smart Contract can mint Token');\n    emit MintCall(freezerAddress, owner, amount);\n    commissionAddress = owner;\n    commissionAmount = (amount*10)/100;\n\t\t_mint(freezerAddress, amount);\n        _mint(commissionAddress, commissionAmount);\n\t}\n}\n",
  "sourcePath": "/home/sulaman/Documents/BlockchainProjects/blockchain-app/src/contracts/NoLossToken.sol",
  "compiler": {
    "name": "solc",
    "version": "0.8.0+commit.c7dfd78e.Emscripten.clang"
  },
  "schemaVersion": "3.4.1",
  "updatedAt": "2021-06-07T15:29:09.643Z",
  "networkType": "ethereum",
  "devdoc": {
    "kind": "dev",
    "methods": {
      "allowance(address,address)": {
        "details": "See {IERC20-allowance}."
      },
      "approve(address,uint256)": {
        "details": "See {IERC20-approve}. Requirements: - `spender` cannot be the zero address."
      },
      "balanceOf(address)": {
        "details": "See {IERC20-balanceOf}."
      },
      "decimals()": {
        "details": "Returns the number of decimals used to get its user representation. For example, if `decimals` equals `2`, a balance of `505` tokens should be displayed to a user as `5,05` (`505 / 10 ** 2`). Tokens usually opt for a value of 18, imitating the relationship between Ether and Wei. This is the value {ERC20} uses, unless this function is overridden; NOTE: This information is only used for _display_ purposes: it in no way affects any of the arithmetic of the contract, including {IERC20-balanceOf} and {IERC20-transfer}."
      },
      "decreaseAllowance(address,uint256)": {
        "details": "Atomically decreases the allowance granted to `spender` by the caller. This is an alternative to {approve} that can be used as a mitigation for problems described in {IERC20-approve}. Emits an {Approval} event indicating the updated allowance. Requirements: - `spender` cannot be the zero address. - `spender` must have allowance for the caller of at least `subtractedValue`."
      },
      "increaseAllowance(address,uint256)": {
        "details": "Atomically increases the allowance granted to `spender` by the caller. This is an alternative to {approve} that can be used as a mitigation for problems described in {IERC20-approve}. Emits an {Approval} event indicating the updated allowance. Requirements: - `spender` cannot be the zero address."
      },
      "name()": {
        "details": "Returns the name of the token."
      },
      "symbol()": {
        "details": "Returns the symbol of the token, usually a shorter version of the name."
      },
      "totalSupply()": {
        "details": "See {IERC20-totalSupply}."
      },
      "transfer(address,uint256)": {
        "details": "See {IERC20-transfer}. Requirements: - `recipient` cannot be the zero address. - the caller must have a balance of at least `amount`."
      },
      "transferFrom(address,address,uint256)": {
        "details": "See {IERC20-transferFrom}. Emits an {Approval} event indicating the updated allowance. This is not required by the EIP. See the note at the beginning of {ERC20}. Requirements: - `sender` and `recipient` cannot be the zero address. - `sender` must have a balance of at least `amount`. - the caller must have allowance for ``sender``'s tokens of at least `amount`."
      }
    },
    "version": 1
  },
  "userdoc": {
    "kind": "user",
    "methods": {},
    "version": 1
  }
}