{
  "contractName": "TokenFarm",
  "abi": [
    {
      "inputs": [
        {
          "internalType": "contract DaiToken",
          "name": "_daiToken",
          "type": "address"
        },
        {
          "internalType": "contract DappToken",
          "name": "_dappToken",
          "type": "address"
        }
      ],
      "stateMutability": "nonpayable",
      "type": "constructor"
    },
    {
      "inputs": [],
      "name": "daiToken",
      "outputs": [
        {
          "internalType": "contract DaiToken",
          "name": "",
          "type": "address"
        }
      ],
      "stateMutability": "view",
      "type": "function",
      "constant": true
    },
    {
      "inputs": [],
      "name": "dappToken",
      "outputs": [
        {
          "internalType": "contract DappToken",
          "name": "",
          "type": "address"
        }
      ],
      "stateMutability": "view",
      "type": "function",
      "constant": true
    },
    {
      "inputs": [
        {
          "internalType": "address",
          "name": "",
          "type": "address"
        }
      ],
      "name": "hasStacked",
      "outputs": [
        {
          "internalType": "bool",
          "name": "",
          "type": "bool"
        }
      ],
      "stateMutability": "view",
      "type": "function",
      "constant": true
    },
    {
      "inputs": [
        {
          "internalType": "address",
          "name": "",
          "type": "address"
        }
      ],
      "name": "isStacking",
      "outputs": [
        {
          "internalType": "bool",
          "name": "",
          "type": "bool"
        }
      ],
      "stateMutability": "view",
      "type": "function",
      "constant": true
    },
    {
      "inputs": [],
      "name": "name",
      "outputs": [
        {
          "internalType": "string",
          "name": "",
          "type": "string"
        }
      ],
      "stateMutability": "view",
      "type": "function",
      "constant": true
    },
    {
      "inputs": [
        {
          "internalType": "address",
          "name": "",
          "type": "address"
        }
      ],
      "name": "stackAmount",
      "outputs": [
        {
          "internalType": "uint256",
          "name": "",
          "type": "uint256"
        }
      ],
      "stateMutability": "view",
      "type": "function",
      "constant": true
    },
    {
      "inputs": [
        {
          "internalType": "uint256",
          "name": "",
          "type": "uint256"
        }
      ],
      "name": "stackers",
      "outputs": [
        {
          "internalType": "address",
          "name": "",
          "type": "address"
        }
      ],
      "stateMutability": "view",
      "type": "function",
      "constant": true
    },
    {
      "inputs": [
        {
          "internalType": "uint256",
          "name": "_value",
          "type": "uint256"
        }
      ],
      "name": "StackingToken",
      "outputs": [],
      "stateMutability": "nonpayable",
      "type": "function"
    },
    {
      "inputs": [],
      "name": "UnStackingToken",
      "outputs": [],
      "stateMutability": "nonpayable",
      "type": "function"
    },
    {
      "inputs": [],
      "name": "IssueToken",
      "outputs": [],
      "stateMutability": "nonpayable",
      "type": "function"
    }
  ],
  "bytecode": "0x60806040526040518060400160405280600981526020017f546f6b656e4661726d000000000000000000000000000000000000000000000081525060009080519060200190620000519291906200010f565b503480156200005f57600080fd5b5060405162001311380380620013118339818101604052810190620000859190620001ed565b81600160006101000a81548173ffffffffffffffffffffffffffffffffffffffff021916908373ffffffffffffffffffffffffffffffffffffffff16021790555080600260006101000a81548173ffffffffffffffffffffffffffffffffffffffff021916908373ffffffffffffffffffffffffffffffffffffffff160217905550505062000323565b8280546200011d906200028a565b90600052602060002090601f0160209004810192826200014157600085556200018d565b82601f106200015c57805160ff19168380011785556200018d565b828001600101855582156200018d579182015b828111156200018c5782518255916020019190600101906200016f565b5b5090506200019c9190620001a0565b5090565b5b80821115620001bb576000816000905550600101620001a1565b5090565b600081519050620001d081620002ef565b92915050565b600081519050620001e78162000309565b92915050565b600080604083850312156200020157600080fd5b60006200021185828601620001bf565b92505060206200022485828601620001d6565b9150509250929050565b60006200023b826200026a565b9050919050565b60006200024f826200022e565b9050919050565b600062000263826200022e565b9050919050565b600073ffffffffffffffffffffffffffffffffffffffff82169050919050565b60006002820490506001821680620002a357607f821691505b60208210811415620002ba57620002b9620002c0565b5b50919050565b7f4e487b7100000000000000000000000000000000000000000000000000000000600052602260045260246000fd5b620002fa8162000242565b81146200030657600080fd5b50565b620003148162000256565b81146200032057600080fd5b50565b610fde80620003336000396000f3fe608060405234801561001057600080fd5b50600436106100bb576000357c010000000000000000000000000000000000000000000000000000000090048063b9da4f2a11610083578063b9da4f2a14610166578063be22f54614610182578063c6019a13146101a0578063f4542238146101d0578063fb453e23146101da576100bb565b806306fdde03146100c057806307e9417a146100de57806332ac90cf1461010e5780635eb186f81461013e578063ab54599e1461015c575b600080fd5b6100c861020a565b6040516100d59190610cc7565b60405180910390f35b6100f860048036038101906100f39190610aa2565b610298565b6040516101059190610c76565b60405180910390f35b61012860048036038101906101239190610aa2565b6102b8565b6040516101359190610c76565b60405180910390f35b6101466102d8565b6040516101539190610cac565b60405180910390f35b6101646102fe565b005b610180600480360381019061017b9190610af4565b610534565b005b61018a61083b565b6040516101979190610c91565b60405180910390f35b6101ba60048036038101906101b59190610aa2565b610861565b6040516101c79190610d29565b60405180910390f35b6101d8610879565b005b6101f460048036038101906101ef9190610af4565b610a24565b6040516102019190610bfb565b60405180910390f35b6000805461021790610e79565b80601f016020809104026020016040519081016040528092919081815260200182805461024390610e79565b80156102905780601f1061026557610100808354040283529160200191610290565b820191906000526020600020905b81548152906001019060200180831161027357829003601f168201915b505050505081565b60066020528060005260406000206000915054906101000a900460ff1681565b60056020528060005260406000206000915054906101000a900460ff1681565b600260009054906101000a900473ffffffffffffffffffffffffffffffffffffffff1681565b600560003373ffffffffffffffffffffffffffffffffffffffff1673ffffffffffffffffffffffffffffffffffffffff16815260200190815260200160002060009054906101000a900460ff1661038a576040517f08c379a000000000000000000000000000000000000000000000000000000000815260040161038190610d09565b60405180910390fd5b600160009054906101000a900473ffffffffffffffffffffffffffffffffffffffff1673ffffffffffffffffffffffffffffffffffffffff1663a9059cbb33600460003373ffffffffffffffffffffffffffffffffffffffff1673ffffffffffffffffffffffffffffffffffffffff168152602001908152602001600020546040518363ffffffff167c0100000000000000000000000000000000000000000000000000000000028152600401610442929190610c4d565b602060405180830381600087803b15801561045c57600080fd5b505af1158015610470573d6000803e3d6000fd5b505050506040513d601f19601f820116820180604052508101906104949190610acb565b506000600460003373ffffffffffffffffffffffffffffffffffffffff1673ffffffffffffffffffffffffffffffffffffffff168152602001908152602001600020819055506000600560003373ffffffffffffffffffffffffffffffffffffffff1673ffffffffffffffffffffffffffffffffffffffff16815260200190815260200160002060006101000a81548160ff021916908315150217905550565b60008111610577576040517f08c379a000000000000000000000000000000000000000000000000000000000815260040161056e90610ce9565b60405180910390fd5b600160009054906101000a900473ffffffffffffffffffffffffffffffffffffffff1673ffffffffffffffffffffffffffffffffffffffff166323b872dd3330846040518463ffffffff167c01000000000000000000000000000000000000000000000000000000000281526004016105f293929190610c16565b602060405180830381600087803b15801561060c57600080fd5b505af1158015610620573d6000803e3d6000fd5b505050506040513d601f19601f820116820180604052508101906106449190610acb565b5080600460003373ffffffffffffffffffffffffffffffffffffffff1673ffffffffffffffffffffffffffffffffffffffff168152602001908152602001600020546106909190610d60565b600460003373ffffffffffffffffffffffffffffffffffffffff1673ffffffffffffffffffffffffffffffffffffffff16815260200190815260200160002081905550600560003373ffffffffffffffffffffffffffffffffffffffff1673ffffffffffffffffffffffffffffffffffffffff16815260200190815260200160002060009054906101000a900460ff16610788576003339080600181540180825580915050600190039060005260206000200160009091909190916101000a81548173ffffffffffffffffffffffffffffffffffffffff021916908373ffffffffffffffffffffffffffffffffffffffff1602179055505b6001600660003373ffffffffffffffffffffffffffffffffffffffff1673ffffffffffffffffffffffffffffffffffffffff16815260200190815260200160002060006101000a81548160ff0219169083151502179055506001600560003373ffffffffffffffffffffffffffffffffffffffff1673ffffffffffffffffffffffffffffffffffffffff16815260200190815260200160002060006101000a81548160ff02191690831515021790555050565b600160009054906101000a900473ffffffffffffffffffffffffffffffffffffffff1681565b60046020528060005260406000206000915090505481565b60005b600380549050811015610a21576000600382815481106108c5577f4e487b7100000000000000000000000000000000000000000000000000000000600052603260045260246000fd5b9060005260206000200160009054906101000a900473ffffffffffffffffffffffffffffffffffffffff1690506000600460003373ffffffffffffffffffffffffffffffffffffffff1673ffffffffffffffffffffffffffffffffffffffff1681526020019081526020016000205490506000811115610a0c57600260009054906101000a900473ffffffffffffffffffffffffffffffffffffffff1673ffffffffffffffffffffffffffffffffffffffff1663a9059cbb83836040518363ffffffff167c01000000000000000000000000000000000000000000000000000000000281526004016109b8929190610c4d565b602060405180830381600087803b1580156109d257600080fd5b505af11580156109e6573d6000803e3d6000fd5b505050506040513d601f19601f82011682018060405250810190610a0a9190610acb565b505b50508080610a1990610eab565b91505061087c565b50565b60038181548110610a3457600080fd5b906000526020600020016000915054906101000a900473ffffffffffffffffffffffffffffffffffffffff1681565b600081359050610a7281610f63565b92915050565b600081519050610a8781610f7a565b92915050565b600081359050610a9c81610f91565b92915050565b600060208284031215610ab457600080fd5b6000610ac284828501610a63565b91505092915050565b600060208284031215610add57600080fd5b6000610aeb84828501610a78565b91505092915050565b600060208284031215610b0657600080fd5b6000610b1484828501610a8d565b91505092915050565b610b2681610db6565b82525050565b610b3581610dc8565b82525050565b610b4481610dfe565b82525050565b610b5381610e22565b82525050565b6000610b6482610d44565b610b6e8185610d4f565b9350610b7e818560208601610e46565b610b8781610f52565b840191505092915050565b6000610b9f601d83610d4f565b91507f596f757220616d6f756e742063616e742062652030206f72206c6573730000006000830152602082019050919050565b6000610bdf600083610d4f565b9150600082019050919050565b610bf581610df4565b82525050565b6000602082019050610c106000830184610b1d565b92915050565b6000606082019050610c2b6000830186610b1d565b610c386020830185610b1d565b610c456040830184610bec565b949350505050565b6000604082019050610c626000830185610b1d565b610c6f6020830184610bec565b9392505050565b6000602082019050610c8b6000830184610b2c565b92915050565b6000602082019050610ca66000830184610b3b565b92915050565b6000602082019050610cc16000830184610b4a565b92915050565b60006020820190508181036000830152610ce18184610b59565b905092915050565b60006020820190508181036000830152610d0281610b92565b9050919050565b60006020820190508181036000830152610d2281610bd2565b9050919050565b6000602082019050610d3e6000830184610bec565b92915050565b600081519050919050565b600082825260208201905092915050565b6000610d6b82610df4565b9150610d7683610df4565b9250827fffffffffffffffffffffffffffffffffffffffffffffffffffffffffffffffff03821115610dab57610daa610ef4565b5b828201905092915050565b6000610dc182610dd4565b9050919050565b60008115159050919050565b600073ffffffffffffffffffffffffffffffffffffffff82169050919050565b6000819050919050565b6000610e0982610e10565b9050919050565b6000610e1b82610dd4565b9050919050565b6000610e2d82610e34565b9050919050565b6000610e3f82610dd4565b9050919050565b60005b83811015610e64578082015181840152602081019050610e49565b83811115610e73576000848401525b50505050565b60006002820490506001821680610e9157607f821691505b60208210811415610ea557610ea4610f23565b5b50919050565b6000610eb682610df4565b91507fffffffffffffffffffffffffffffffffffffffffffffffffffffffffffffffff821415610ee957610ee8610ef4565b5b600182019050919050565b7f4e487b7100000000000000000000000000000000000000000000000000000000600052601160045260246000fd5b7f4e487b7100000000000000000000000000000000000000000000000000000000600052602260045260246000fd5b6000601f19601f8301169050919050565b610f6c81610db6565b8114610f7757600080fd5b50565b610f8381610dc8565b8114610f8e57600080fd5b50565b610f9a81610df4565b8114610fa557600080fd5b5056fea26469706673582212201c80766a3d1dccafd9410ac974666c1a0e20a53aa040040404a202802975a5fc64736f6c63430008000033",
  "immutableReferences": {},
  "source": "//SPDX-License-Identifier: UNLICENSED\npragma solidity ^0.8.0;\n\nimport \"./DaiToken.sol\";\nimport \"./DappToken.sol\";\n\ncontract TokenFarm{\n    string public name = \"TokenFarm\";\n\n    DaiToken public daiToken;\n    DappToken public dappToken;\n    \n    address[] public stackers;\n    mapping(address => uint) public stackAmount;\n    mapping(address =>bool) public hasStacked;\n    mapping(address => bool) public isStacking;\n\n    constructor(DaiToken _daiToken, DappToken _dappToken){\n        daiToken = _daiToken;\n        dappToken = _dappToken;\n    }\n\n    // Stacking\n    function StackingToken(uint _value) public{\n        require(_value > 0, 'Your amount cant be 0 or less');\n\n\t\tdaiToken.transferFrom(msg.sender, address(this), _value);\n\t\tstackAmount[msg.sender] = stackAmount[msg.sender] + _value;\n\n\t\tif(!hasStacked[msg.sender]){\n\t\t\tstackers.push(msg.sender);\n\t\t}\n\t\tisStacking[msg.sender] = true;\n\t\thasStacked[msg.sender] = true;\n\n        // require(!hasStacked[msg.sender], 'You have already stacked amount');\n        \n        \n        // stackAmount[msg.sender] += _value;   \n        // if(!hasStacked[msg.sender]){\n        //     stackers.push(msg.sender);\n        // }\n   \n        // //Investor send DAI amount to LiquidityPool\n        // daiToken.transferFrom(msg.sender, address(this), _value);\n        // hasStacked[msg.sender] = true;\n    }\n\n    // Unstaking\n    function UnStackingToken() public{\n        require(hasStacked[msg.sender], '');\n        //msg.sender.transfer(stackAmount[msg.sender]);\n        daiToken.transfer(msg.sender, stackAmount[msg.sender]);\n        stackAmount[msg.sender] = 0;\n        hasStacked[msg.sender] = false;\n    }\n    \n    // EarnReward\n    function IssueToken() public{\n        for(uint i=0; i<stackers.length; i++){\n            address inv = stackers[i];\n            uint amount = stackAmount[msg.sender];\n            if(amount > 0){\n                dappToken.transfer(inv, amount);\n            }\n        }       \n    }\n}\n",
  "sourcePath": "/home/sulaman/check/blockchain-app/src/contracts/TokenFarm.sol",
  "compiler": {
    "name": "solc",
    "version": "0.8.0+commit.c7dfd78e.Emscripten.clang"
  },
  "schemaVersion": "3.2.3",
  "updatedAt": "2021-05-21T19:34:24.549Z",
  "networkType": "ethereum",
  "devdoc": {
    "kind": "dev",
    "methods": {},
    "version": 1
  },
  "userdoc": {
    "kind": "user",
    "methods": {},
    "version": 1
  }
}