{
  "contractName": "TokenFarm",
  "abi": [
    {
      "inputs": [
        {
          "internalType": "contract DaiToken",
          "name": "_daiToken",
          "type": "address"
        },
        {
          "internalType": "contract DappToken",
          "name": "_dappToken",
          "type": "address"
        }
      ],
      "stateMutability": "nonpayable",
      "type": "constructor"
    },
    {
      "anonymous": false,
      "inputs": [
        {
          "indexed": false,
          "internalType": "address",
          "name": "sender",
          "type": "address"
        },
        {
          "indexed": false,
          "internalType": "address",
          "name": "stacker",
          "type": "address"
        },
        {
          "indexed": false,
          "internalType": "uint256",
          "name": "value",
          "type": "uint256"
        }
      ],
      "name": "StackEvent",
      "type": "event"
    },
    {
      "inputs": [],
      "name": "daiToken",
      "outputs": [
        {
          "internalType": "contract DaiToken",
          "name": "",
          "type": "address"
        }
      ],
      "stateMutability": "view",
      "type": "function",
      "constant": true
    },
    {
      "inputs": [],
      "name": "dappToken",
      "outputs": [
        {
          "internalType": "contract DappToken",
          "name": "",
          "type": "address"
        }
      ],
      "stateMutability": "view",
      "type": "function",
      "constant": true
    },
    {
      "inputs": [
        {
          "internalType": "address",
          "name": "",
          "type": "address"
        }
      ],
      "name": "hasStacked",
      "outputs": [
        {
          "internalType": "bool",
          "name": "",
          "type": "bool"
        }
      ],
      "stateMutability": "view",
      "type": "function",
      "constant": true
    },
    {
      "inputs": [
        {
          "internalType": "address",
          "name": "",
          "type": "address"
        }
      ],
      "name": "isStacking",
      "outputs": [
        {
          "internalType": "bool",
          "name": "",
          "type": "bool"
        }
      ],
      "stateMutability": "view",
      "type": "function",
      "constant": true
    },
    {
      "inputs": [],
      "name": "name",
      "outputs": [
        {
          "internalType": "string",
          "name": "",
          "type": "string"
        }
      ],
      "stateMutability": "view",
      "type": "function",
      "constant": true
    },
    {
      "inputs": [
        {
          "internalType": "address",
          "name": "",
          "type": "address"
        }
      ],
      "name": "stackAmount",
      "outputs": [
        {
          "internalType": "uint256",
          "name": "",
          "type": "uint256"
        }
      ],
      "stateMutability": "view",
      "type": "function",
      "constant": true
    },
    {
      "inputs": [
        {
          "internalType": "uint256",
          "name": "",
          "type": "uint256"
        }
      ],
      "name": "stackers",
      "outputs": [
        {
          "internalType": "address",
          "name": "",
          "type": "address"
        }
      ],
      "stateMutability": "view",
      "type": "function",
      "constant": true
    },
    {
      "inputs": [
        {
          "internalType": "uint256",
          "name": "_value",
          "type": "uint256"
        }
      ],
      "name": "StackingToken",
      "outputs": [],
      "stateMutability": "nonpayable",
      "type": "function"
    },
    {
      "inputs": [],
      "name": "UnStackingToken",
      "outputs": [],
      "stateMutability": "nonpayable",
      "type": "function"
    },
    {
      "inputs": [],
      "name": "issueToken",
      "outputs": [],
      "stateMutability": "nonpayable",
      "type": "function"
    }
  ],
  "bytecode": "0x60806040526040518060400160405280600981526020017f546f6b656e4661726d000000000000000000000000000000000000000000000081525060009080519060200190620000519291906200010f565b503480156200005f57600080fd5b50604051620013bb380380620013bb8339818101604052810190620000859190620001ed565b81600160006101000a81548173ffffffffffffffffffffffffffffffffffffffff021916908373ffffffffffffffffffffffffffffffffffffffff16021790555080600260006101000a81548173ffffffffffffffffffffffffffffffffffffffff021916908373ffffffffffffffffffffffffffffffffffffffff160217905550505062000323565b8280546200011d906200028a565b90600052602060002090601f0160209004810192826200014157600085556200018d565b82601f106200015c57805160ff19168380011785556200018d565b828001600101855582156200018d579182015b828111156200018c5782518255916020019190600101906200016f565b5b5090506200019c9190620001a0565b5090565b5b80821115620001bb576000816000905550600101620001a1565b5090565b600081519050620001d081620002ef565b92915050565b600081519050620001e78162000309565b92915050565b600080604083850312156200020157600080fd5b60006200021185828601620001bf565b92505060206200022485828601620001d6565b9150509250929050565b60006200023b826200026a565b9050919050565b60006200024f826200022e565b9050919050565b600062000263826200022e565b9050919050565b600073ffffffffffffffffffffffffffffffffffffffff82169050919050565b60006002820490506001821680620002a357607f821691505b60208210811415620002ba57620002b9620002c0565b5b50919050565b7f4e487b7100000000000000000000000000000000000000000000000000000000600052602260045260246000fd5b620002fa8162000242565b81146200030657600080fd5b50565b620003148162000256565b81146200032057600080fd5b50565b61108880620003336000396000f3fe608060405234801561001057600080fd5b50600436106100bb576000357c010000000000000000000000000000000000000000000000000000000090048063ab54599e11610083578063ab54599e14610166578063b9da4f2a14610170578063be22f5461461018c578063c6019a13146101aa578063fb453e23146101da576100bb565b806306fdde03146100c057806307e9417a146100de57806332ac90cf1461010e5780635eb186f81461013e578063a1ee8c781461015c575b600080fd5b6100c861020a565b6040516100d59190610d11565b60405180910390f35b6100f860048036038101906100f39190610aec565b610298565b6040516101059190610cc0565b60405180910390f35b61012860048036038101906101239190610aec565b6102b8565b6040516101359190610cc0565b60405180910390f35b6101466102d8565b6040516101539190610cf6565b60405180910390f35b6101646102fe565b005b61016e6104b8565b005b61018a60048036038101906101859190610b3e565b6106ee565b005b610194610a30565b6040516101a19190610cdb565b60405180910390f35b6101c460048036038101906101bf9190610aec565b610a56565b6040516101d19190610d73565b60405180910390f35b6101f460048036038101906101ef9190610b3e565b610a6e565b6040516102019190610c45565b60405180910390f35b6000805461021790610ef4565b80601f016020809104026020016040519081016040528092919081815260200182805461024390610ef4565b80156102905780601f1061026557610100808354040283529160200191610290565b820191906000526020600020905b81548152906001019060200180831161027357829003601f168201915b505050505081565b60066020528060005260406000206000915054906101000a900460ff1681565b60056020528060005260406000206000915054906101000a900460ff1681565b600260009054906101000a900473ffffffffffffffffffffffffffffffffffffffff1681565b600080600090505b6003805490508110156104b45760006003828154811061034f577f4e487b7100000000000000000000000000000000000000000000000000000000600052603260045260246000fd5b9060005260206000200160009054906101000a900473ffffffffffffffffffffffffffffffffffffffff1690506002600460008373ffffffffffffffffffffffffffffffffffffffff1673ffffffffffffffffffffffffffffffffffffffff168152602001908152602001600020546103c89190610e00565b925060008311156104a057600260009054906101000a900473ffffffffffffffffffffffffffffffffffffffff1673ffffffffffffffffffffffffffffffffffffffff1663a9059cbb82856040518363ffffffff167c010000000000000000000000000000000000000000000000000000000002815260040161044c929190610c97565b602060405180830381600087803b15801561046657600080fd5b505af115801561047a573d6000803e3d6000fd5b505050506040513d601f19601f8201168201806040525081019061049e9190610b15565b505b5080806104ac90610f26565b915050610306565b5050565b600560003373ffffffffffffffffffffffffffffffffffffffff1673ffffffffffffffffffffffffffffffffffffffff16815260200190815260200160002060009054906101000a900460ff16610544576040517f08c379a000000000000000000000000000000000000000000000000000000000815260040161053b90610d53565b60405180910390fd5b600160009054906101000a900473ffffffffffffffffffffffffffffffffffffffff1673ffffffffffffffffffffffffffffffffffffffff1663a9059cbb33600460003373ffffffffffffffffffffffffffffffffffffffff1673ffffffffffffffffffffffffffffffffffffffff168152602001908152602001600020546040518363ffffffff167c01000000000000000000000000000000000000000000000000000000000281526004016105fc929190610c97565b602060405180830381600087803b15801561061657600080fd5b505af115801561062a573d6000803e3d6000fd5b505050506040513d601f19601f8201168201806040525081019061064e9190610b15565b506000600460003373ffffffffffffffffffffffffffffffffffffffff1673ffffffffffffffffffffffffffffffffffffffff168152602001908152602001600020819055506000600560003373ffffffffffffffffffffffffffffffffffffffff1673ffffffffffffffffffffffffffffffffffffffff16815260200190815260200160002060006101000a81548160ff021916908315150217905550565b60008111610731576040517f08c379a000000000000000000000000000000000000000000000000000000000815260040161072890610d33565b60405180910390fd5b600160009054906101000a900473ffffffffffffffffffffffffffffffffffffffff1673ffffffffffffffffffffffffffffffffffffffff166323b872dd3330846040518463ffffffff167c01000000000000000000000000000000000000000000000000000000000281526004016107ac93929190610c60565b602060405180830381600087803b1580156107c657600080fd5b505af11580156107da573d6000803e3d6000fd5b505050506040513d601f19601f820116820180604052508101906107fe9190610b15565b5080600460003373ffffffffffffffffffffffffffffffffffffffff1673ffffffffffffffffffffffffffffffffffffffff1681526020019081526020016000205461084a9190610daa565b600460003373ffffffffffffffffffffffffffffffffffffffff1673ffffffffffffffffffffffffffffffffffffffff16815260200190815260200160002081905550600560003373ffffffffffffffffffffffffffffffffffffffff1673ffffffffffffffffffffffffffffffffffffffff16815260200190815260200160002060009054906101000a900460ff16610942576003339080600181540180825580915050600190039060005260206000200160009091909190916101000a81548173ffffffffffffffffffffffffffffffffffffffff021916908373ffffffffffffffffffffffffffffffffffffffff1602179055505b6001600660003373ffffffffffffffffffffffffffffffffffffffff1673ffffffffffffffffffffffffffffffffffffffff16815260200190815260200160002060006101000a81548160ff0219169083151502179055506001600560003373ffffffffffffffffffffffffffffffffffffffff1673ffffffffffffffffffffffffffffffffffffffff16815260200190815260200160002060006101000a81548160ff0219169083151502179055507fbcfdc7e59e67a8463aec83b17a08e2b6ca381745dbbd7466e329672596763743333083604051610a2593929190610c60565b60405180910390a150565b600160009054906101000a900473ffffffffffffffffffffffffffffffffffffffff1681565b60046020528060005260406000206000915090505481565b60038181548110610a7e57600080fd5b906000526020600020016000915054906101000a900473ffffffffffffffffffffffffffffffffffffffff1681565b600081359050610abc8161100d565b92915050565b600081519050610ad181611024565b92915050565b600081359050610ae68161103b565b92915050565b600060208284031215610afe57600080fd5b6000610b0c84828501610aad565b91505092915050565b600060208284031215610b2757600080fd5b6000610b3584828501610ac2565b91505092915050565b600060208284031215610b5057600080fd5b6000610b5e84828501610ad7565b91505092915050565b610b7081610e31565b82525050565b610b7f81610e43565b82525050565b610b8e81610e79565b82525050565b610b9d81610e9d565b82525050565b6000610bae82610d8e565b610bb88185610d99565b9350610bc8818560208601610ec1565b610bd181610ffc565b840191505092915050565b6000610be9601d83610d99565b91507f596f757220616d6f756e742063616e742062652030206f72206c6573730000006000830152602082019050919050565b6000610c29600083610d99565b9150600082019050919050565b610c3f81610e6f565b82525050565b6000602082019050610c5a6000830184610b67565b92915050565b6000606082019050610c756000830186610b67565b610c826020830185610b67565b610c8f6040830184610c36565b949350505050565b6000604082019050610cac6000830185610b67565b610cb96020830184610c36565b9392505050565b6000602082019050610cd56000830184610b76565b92915050565b6000602082019050610cf06000830184610b85565b92915050565b6000602082019050610d0b6000830184610b94565b92915050565b60006020820190508181036000830152610d2b8184610ba3565b905092915050565b60006020820190508181036000830152610d4c81610bdc565b9050919050565b60006020820190508181036000830152610d6c81610c1c565b9050919050565b6000602082019050610d886000830184610c36565b92915050565b600081519050919050565b600082825260208201905092915050565b6000610db582610e6f565b9150610dc083610e6f565b9250827fffffffffffffffffffffffffffffffffffffffffffffffffffffffffffffffff03821115610df557610df4610f6f565b5b828201905092915050565b6000610e0b82610e6f565b9150610e1683610e6f565b925082610e2657610e25610f9e565b5b828204905092915050565b6000610e3c82610e4f565b9050919050565b60008115159050919050565b600073ffffffffffffffffffffffffffffffffffffffff82169050919050565b6000819050919050565b6000610e8482610e8b565b9050919050565b6000610e9682610e4f565b9050919050565b6000610ea882610eaf565b9050919050565b6000610eba82610e4f565b9050919050565b60005b83811015610edf578082015181840152602081019050610ec4565b83811115610eee576000848401525b50505050565b60006002820490506001821680610f0c57607f821691505b60208210811415610f2057610f1f610fcd565b5b50919050565b6000610f3182610e6f565b91507fffffffffffffffffffffffffffffffffffffffffffffffffffffffffffffffff821415610f6457610f63610f6f565b5b600182019050919050565b7f4e487b7100000000000000000000000000000000000000000000000000000000600052601160045260246000fd5b7f4e487b7100000000000000000000000000000000000000000000000000000000600052601260045260246000fd5b7f4e487b7100000000000000000000000000000000000000000000000000000000600052602260045260246000fd5b6000601f19601f8301169050919050565b61101681610e31565b811461102157600080fd5b50565b61102d81610e43565b811461103857600080fd5b50565b61104481610e6f565b811461104f57600080fd5b5056fea26469706673582212201724642bc919bfcfb6144edf2cd16a37348638b61648bfe3756bc2b99b1d49c964736f6c63430008000033",
  "immutableReferences": {},
  "source": "//SPDX-License-Identifier: UNLICENSED\npragma solidity ^0.8.0;\n\nimport \"./DaiToken.sol\";\nimport \"./DappToken.sol\";\n\ncontract TokenFarm{\n    string public name = \"TokenFarm\";\n\n    DaiToken public daiToken;\n    DappToken public dappToken;\n    \n    address[] public stackers;\n    mapping(address => uint) public stackAmount;     \n    mapping(address =>bool) public hasStacked;       \n    mapping(address => bool) public isStacking;      \n\n    event StackEvent(address sender, address stacker, uint value);\n\n    constructor(DaiToken _daiToken, DappToken _dappToken){\n        daiToken = _daiToken;\n        dappToken = _dappToken;\n    }\n\n    // Stacking\n    function StackingToken(uint _value) public{\n        require(_value > 0, 'Your amount cant be 0 or less');\n\n\t\tdaiToken.transferFrom(msg.sender, address(this), _value);  \n\t\tstackAmount[msg.sender] = stackAmount[msg.sender] + _value;\n\n\t\tif(!hasStacked[msg.sender]){\n\t\t\tstackers.push(msg.sender);\n\t\t}\n\t\tisStacking[msg.sender] = true; \n\t\thasStacked[msg.sender] = true; \n        //dappToken.transfer(msg.sender, 30);\n        emit StackEvent(msg.sender, address(this), _value);\n        // require(!hasStacked[msg.sender], 'You have already stacked amount');\n        \n        \n        // stackAmount[msg.sender] += _value;   \n        // if(!hasStacked[msg.sender]){\n        //     stackers.push(msg.sender);\n        // }\n   \n        // //Investor send DAI amount to LiquidityPool\n        // daiToken.transferFrom(msg.sender, address(this), _value);\n        // hasStacked[msg.sender] = true;\n    }\n\n    // Unstaking\n    function UnStackingToken() public{\n        require(hasStacked[msg.sender], '');\n       \n        //msg.sender.transfer(stackAmount[msg.sender]);\n        daiToken.transfer(msg.sender, stackAmount[msg.sender]);\n        stackAmount[msg.sender] = 0;\n        hasStacked[msg.sender] = false;\n\n    }\n    \n    // EarnReward\n    \tfunction issueToken() public{\n\t\tuint balance;\n\t\tfor(uint256 i = 0; i < stackers.length; i++){\n\n\t\t\taddress add;\n\t\t\tadd = stackers[i];\n\n\t\t\tbalance = stackAmount[add]/2;\n\t\t\t\n\t\t\tif(balance > 0){\n\t\t\t\tdappToken.transfer(add, balance);\n\t\t\t}\n\t\t}\n\t}\n}\n",
  "sourcePath": "/home/sulaman/Documents/BlockchainProjects/check/blockchain-app/src/contracts/TokenFarm.sol",
  "compiler": {
    "name": "solc",
    "version": "0.8.0+commit.c7dfd78e.Emscripten.clang"
  },
  "schemaVersion": "3.4.1",
  "updatedAt": "2021-06-08T18:46:59.075Z",
  "networkType": "ethereum",
  "devdoc": {
    "kind": "dev",
    "methods": {},
    "version": 1
  },
  "userdoc": {
    "kind": "user",
    "methods": {},
    "version": 1
  }
}