{
  "contractName": "TokenFarm",
  "abi": [
    {
      "inputs": [
        {
          "internalType": "contract DaiToken",
          "name": "_daiToken",
          "type": "address"
        },
        {
          "internalType": "contract DappToken",
          "name": "_dappToken",
          "type": "address"
        }
      ],
      "stateMutability": "nonpayable",
      "type": "constructor"
    },
    {
      "anonymous": false,
      "inputs": [
        {
          "indexed": false,
          "internalType": "address",
          "name": "sender",
          "type": "address"
        },
        {
          "indexed": false,
          "internalType": "address",
          "name": "stacker",
          "type": "address"
        },
        {
          "indexed": false,
          "internalType": "uint256",
          "name": "value",
          "type": "uint256"
        }
      ],
      "name": "StackEvent",
      "type": "event"
    },
    {
      "inputs": [],
      "name": "daiToken",
      "outputs": [
        {
          "internalType": "contract DaiToken",
          "name": "",
          "type": "address"
        }
      ],
      "stateMutability": "view",
      "type": "function",
      "constant": true
    },
    {
      "inputs": [],
      "name": "dappToken",
      "outputs": [
        {
          "internalType": "contract DappToken",
          "name": "",
          "type": "address"
        }
      ],
      "stateMutability": "view",
      "type": "function",
      "constant": true
    },
    {
      "inputs": [
        {
          "internalType": "address",
          "name": "",
          "type": "address"
        }
      ],
      "name": "hasStacked",
      "outputs": [
        {
          "internalType": "bool",
          "name": "",
          "type": "bool"
        }
      ],
      "stateMutability": "view",
      "type": "function",
      "constant": true
    },
    {
      "inputs": [
        {
          "internalType": "address",
          "name": "",
          "type": "address"
        }
      ],
      "name": "isStacking",
      "outputs": [
        {
          "internalType": "bool",
          "name": "",
          "type": "bool"
        }
      ],
      "stateMutability": "view",
      "type": "function",
      "constant": true
    },
    {
      "inputs": [],
      "name": "name",
      "outputs": [
        {
          "internalType": "string",
          "name": "",
          "type": "string"
        }
      ],
      "stateMutability": "view",
      "type": "function",
      "constant": true
    },
    {
      "inputs": [
        {
          "internalType": "address",
          "name": "",
          "type": "address"
        }
      ],
      "name": "stackAmount",
      "outputs": [
        {
          "internalType": "uint256",
          "name": "",
          "type": "uint256"
        }
      ],
      "stateMutability": "view",
      "type": "function",
      "constant": true
    },
    {
      "inputs": [
        {
          "internalType": "uint256",
          "name": "",
          "type": "uint256"
        }
      ],
      "name": "stackers",
      "outputs": [
        {
          "internalType": "address",
          "name": "",
          "type": "address"
        }
      ],
      "stateMutability": "view",
      "type": "function",
      "constant": true
    },
    {
      "inputs": [
        {
          "internalType": "uint256",
          "name": "_value",
          "type": "uint256"
        }
      ],
      "name": "StackingToken",
      "outputs": [],
      "stateMutability": "nonpayable",
      "type": "function"
    },
    {
      "inputs": [],
      "name": "UnStackingToken",
      "outputs": [],
      "stateMutability": "nonpayable",
      "type": "function"
    },
    {
      "inputs": [],
      "name": "issueToken",
      "outputs": [],
      "stateMutability": "nonpayable",
      "type": "function"
    }
  ],
  "bytecode": "0x60806040526040518060400160405280600981526020017f546f6b656e4661726d000000000000000000000000000000000000000000000081525060009080519060200190620000519291906200010f565b503480156200005f57600080fd5b506040516200134f3803806200134f8339818101604052810190620000859190620001ed565b81600160006101000a81548173ffffffffffffffffffffffffffffffffffffffff021916908373ffffffffffffffffffffffffffffffffffffffff16021790555080600260006101000a81548173ffffffffffffffffffffffffffffffffffffffff021916908373ffffffffffffffffffffffffffffffffffffffff160217905550505062000323565b8280546200011d906200028a565b90600052602060002090601f0160209004810192826200014157600085556200018d565b82601f106200015c57805160ff19168380011785556200018d565b828001600101855582156200018d579182015b828111156200018c5782518255916020019190600101906200016f565b5b5090506200019c9190620001a0565b5090565b5b80821115620001bb576000816000905550600101620001a1565b5090565b600081519050620001d081620002ef565b92915050565b600081519050620001e78162000309565b92915050565b600080604083850312156200020157600080fd5b60006200021185828601620001bf565b92505060206200022485828601620001d6565b9150509250929050565b60006200023b826200026a565b9050919050565b60006200024f826200022e565b9050919050565b600062000263826200022e565b9050919050565b600073ffffffffffffffffffffffffffffffffffffffff82169050919050565b60006002820490506001821680620002a357607f821691505b60208210811415620002ba57620002b9620002c0565b5b50919050565b7f4e487b7100000000000000000000000000000000000000000000000000000000600052602260045260246000fd5b620002fa8162000242565b81146200030657600080fd5b50565b620003148162000256565b81146200032057600080fd5b50565b61101c80620003336000396000f3fe608060405234801561001057600080fd5b50600436106100bb576000357c010000000000000000000000000000000000000000000000000000000090048063ab54599e11610083578063ab54599e14610166578063b9da4f2a14610170578063be22f5461461018c578063c6019a13146101aa578063fb453e23146101da576100bb565b806306fdde03146100c057806307e9417a146100de57806332ac90cf1461010e5780635eb186f81461013e578063a1ee8c781461015c575b600080fd5b6100c861020a565b6040516100d59190610d05565b60405180910390f35b6100f860048036038101906100f39190610ae0565b610298565b6040516101059190610cb4565b60405180910390f35b61012860048036038101906101239190610ae0565b6102b8565b6040516101359190610cb4565b60405180910390f35b6101466102d8565b6040516101539190610cea565b60405180910390f35b6101646102fe565b005b61016e6104ac565b005b61018a60048036038101906101859190610b32565b6106e2565b005b610194610a24565b6040516101a19190610ccf565b60405180910390f35b6101c460048036038101906101bf9190610ae0565b610a4a565b6040516101d19190610d67565b60405180910390f35b6101f460048036038101906101ef9190610b32565b610a62565b6040516102019190610c39565b60405180910390f35b6000805461021790610eb7565b80601f016020809104026020016040519081016040528092919081815260200182805461024390610eb7565b80156102905780601f1061026557610100808354040283529160200191610290565b820191906000526020600020905b81548152906001019060200180831161027357829003601f168201915b505050505081565b60066020528060005260406000206000915054906101000a900460ff1681565b60056020528060005260406000206000915054906101000a900460ff1681565b600260009054906101000a900473ffffffffffffffffffffffffffffffffffffffff1681565b600080600090505b6003805490508110156104a85760006003828154811061034f577f4e487b7100000000000000000000000000000000000000000000000000000000600052603260045260246000fd5b9060005260206000200160009054906101000a900473ffffffffffffffffffffffffffffffffffffffff169050600460008273ffffffffffffffffffffffffffffffffffffffff1673ffffffffffffffffffffffffffffffffffffffff168152602001908152602001600020549250600083111561049457600260009054906101000a900473ffffffffffffffffffffffffffffffffffffffff1673ffffffffffffffffffffffffffffffffffffffff1663a9059cbb82856040518363ffffffff167c0100000000000000000000000000000000000000000000000000000000028152600401610440929190610c8b565b602060405180830381600087803b15801561045a57600080fd5b505af115801561046e573d6000803e3d6000fd5b505050506040513d601f19601f820116820180604052508101906104929190610b09565b505b5080806104a090610ee9565b915050610306565b5050565b600560003373ffffffffffffffffffffffffffffffffffffffff1673ffffffffffffffffffffffffffffffffffffffff16815260200190815260200160002060009054906101000a900460ff16610538576040517f08c379a000000000000000000000000000000000000000000000000000000000815260040161052f90610d47565b60405180910390fd5b600160009054906101000a900473ffffffffffffffffffffffffffffffffffffffff1673ffffffffffffffffffffffffffffffffffffffff1663a9059cbb33600460003373ffffffffffffffffffffffffffffffffffffffff1673ffffffffffffffffffffffffffffffffffffffff168152602001908152602001600020546040518363ffffffff167c01000000000000000000000000000000000000000000000000000000000281526004016105f0929190610c8b565b602060405180830381600087803b15801561060a57600080fd5b505af115801561061e573d6000803e3d6000fd5b505050506040513d601f19601f820116820180604052508101906106429190610b09565b506000600460003373ffffffffffffffffffffffffffffffffffffffff1673ffffffffffffffffffffffffffffffffffffffff168152602001908152602001600020819055506000600560003373ffffffffffffffffffffffffffffffffffffffff1673ffffffffffffffffffffffffffffffffffffffff16815260200190815260200160002060006101000a81548160ff021916908315150217905550565b60008111610725576040517f08c379a000000000000000000000000000000000000000000000000000000000815260040161071c90610d27565b60405180910390fd5b600160009054906101000a900473ffffffffffffffffffffffffffffffffffffffff1673ffffffffffffffffffffffffffffffffffffffff166323b872dd3330846040518463ffffffff167c01000000000000000000000000000000000000000000000000000000000281526004016107a093929190610c54565b602060405180830381600087803b1580156107ba57600080fd5b505af11580156107ce573d6000803e3d6000fd5b505050506040513d601f19601f820116820180604052508101906107f29190610b09565b5080600460003373ffffffffffffffffffffffffffffffffffffffff1673ffffffffffffffffffffffffffffffffffffffff1681526020019081526020016000205461083e9190610d9e565b600460003373ffffffffffffffffffffffffffffffffffffffff1673ffffffffffffffffffffffffffffffffffffffff16815260200190815260200160002081905550600560003373ffffffffffffffffffffffffffffffffffffffff1673ffffffffffffffffffffffffffffffffffffffff16815260200190815260200160002060009054906101000a900460ff16610936576003339080600181540180825580915050600190039060005260206000200160009091909190916101000a81548173ffffffffffffffffffffffffffffffffffffffff021916908373ffffffffffffffffffffffffffffffffffffffff1602179055505b6001600660003373ffffffffffffffffffffffffffffffffffffffff1673ffffffffffffffffffffffffffffffffffffffff16815260200190815260200160002060006101000a81548160ff0219169083151502179055506001600560003373ffffffffffffffffffffffffffffffffffffffff1673ffffffffffffffffffffffffffffffffffffffff16815260200190815260200160002060006101000a81548160ff0219169083151502179055507fbcfdc7e59e67a8463aec83b17a08e2b6ca381745dbbd7466e329672596763743333083604051610a1993929190610c54565b60405180910390a150565b600160009054906101000a900473ffffffffffffffffffffffffffffffffffffffff1681565b60046020528060005260406000206000915090505481565b60038181548110610a7257600080fd5b906000526020600020016000915054906101000a900473ffffffffffffffffffffffffffffffffffffffff1681565b600081359050610ab081610fa1565b92915050565b600081519050610ac581610fb8565b92915050565b600081359050610ada81610fcf565b92915050565b600060208284031215610af257600080fd5b6000610b0084828501610aa1565b91505092915050565b600060208284031215610b1b57600080fd5b6000610b2984828501610ab6565b91505092915050565b600060208284031215610b4457600080fd5b6000610b5284828501610acb565b91505092915050565b610b6481610df4565b82525050565b610b7381610e06565b82525050565b610b8281610e3c565b82525050565b610b9181610e60565b82525050565b6000610ba282610d82565b610bac8185610d8d565b9350610bbc818560208601610e84565b610bc581610f90565b840191505092915050565b6000610bdd601d83610d8d565b91507f596f757220616d6f756e742063616e742062652030206f72206c6573730000006000830152602082019050919050565b6000610c1d600083610d8d565b9150600082019050919050565b610c3381610e32565b82525050565b6000602082019050610c4e6000830184610b5b565b92915050565b6000606082019050610c696000830186610b5b565b610c766020830185610b5b565b610c836040830184610c2a565b949350505050565b6000604082019050610ca06000830185610b5b565b610cad6020830184610c2a565b9392505050565b6000602082019050610cc96000830184610b6a565b92915050565b6000602082019050610ce46000830184610b79565b92915050565b6000602082019050610cff6000830184610b88565b92915050565b60006020820190508181036000830152610d1f8184610b97565b905092915050565b60006020820190508181036000830152610d4081610bd0565b9050919050565b60006020820190508181036000830152610d6081610c10565b9050919050565b6000602082019050610d7c6000830184610c2a565b92915050565b600081519050919050565b600082825260208201905092915050565b6000610da982610e32565b9150610db483610e32565b9250827fffffffffffffffffffffffffffffffffffffffffffffffffffffffffffffffff03821115610de957610de8610f32565b5b828201905092915050565b6000610dff82610e12565b9050919050565b60008115159050919050565b600073ffffffffffffffffffffffffffffffffffffffff82169050919050565b6000819050919050565b6000610e4782610e4e565b9050919050565b6000610e5982610e12565b9050919050565b6000610e6b82610e72565b9050919050565b6000610e7d82610e12565b9050919050565b60005b83811015610ea2578082015181840152602081019050610e87565b83811115610eb1576000848401525b50505050565b60006002820490506001821680610ecf57607f821691505b60208210811415610ee357610ee2610f61565b5b50919050565b6000610ef482610e32565b91507fffffffffffffffffffffffffffffffffffffffffffffffffffffffffffffffff821415610f2757610f26610f32565b5b600182019050919050565b7f4e487b7100000000000000000000000000000000000000000000000000000000600052601160045260246000fd5b7f4e487b7100000000000000000000000000000000000000000000000000000000600052602260045260246000fd5b6000601f19601f8301169050919050565b610faa81610df4565b8114610fb557600080fd5b50565b610fc181610e06565b8114610fcc57600080fd5b50565b610fd881610e32565b8114610fe357600080fd5b5056fea2646970667358221220f78bff2411859f12a4d7e1e43ebb33d8c11dbc8b307057e9dbdb460060978cbb64736f6c63430008000033",
  "immutableReferences": {},
  "source": "//SPDX-License-Identifier: UNLICENSED\npragma solidity ^0.8.0;\n\nimport \"./DaiToken.sol\";\nimport \"./DappToken.sol\";\n\ncontract TokenFarm{\n    string public name = \"TokenFarm\";\n\n    DaiToken public daiToken;\n    DappToken public dappToken;\n    \n    address[] public stackers;\n    mapping(address => uint) public stackAmount;\n    mapping(address =>bool) public hasStacked;\n    mapping(address => bool) public isStacking;\n\n    event StackEvent(address sender, address stacker, uint value);\n\n    constructor(DaiToken _daiToken, DappToken _dappToken){\n        daiToken = _daiToken;\n        dappToken = _dappToken;\n    }\n\n    // Stacking\n    function StackingToken(uint _value) public{\n        require(_value > 0, 'Your amount cant be 0 or less');\n\n\t\tdaiToken.transferFrom(msg.sender, address(this), _value);\n\t\tstackAmount[msg.sender] = stackAmount[msg.sender] + _value;\n\n\t\tif(!hasStacked[msg.sender]){\n\t\t\tstackers.push(msg.sender);\n\t\t}\n\t\tisStacking[msg.sender] = true;\n\t\thasStacked[msg.sender] = true;\n        //dappToken.transfer(msg.sender, 30);\n        emit StackEvent(msg.sender, address(this), _value);\n        // require(!hasStacked[msg.sender], 'You have already stacked amount');\n        \n        \n        // stackAmount[msg.sender] += _value;   \n        // if(!hasStacked[msg.sender]){\n        //     stackers.push(msg.sender);\n        // }\n   \n        // //Investor send DAI amount to LiquidityPool\n        // daiToken.transferFrom(msg.sender, address(this), _value);\n        // hasStacked[msg.sender] = true;\n    }\n\n    // Unstaking\n    function UnStackingToken() public{\n        require(hasStacked[msg.sender], '');\n       \n        //msg.sender.transfer(stackAmount[msg.sender]);\n        daiToken.transfer(msg.sender, stackAmount[msg.sender]);\n        stackAmount[msg.sender] = 0;\n        hasStacked[msg.sender] = false;\n\n    }\n    \n    // EarnReward\n    \tfunction issueToken() public{\n\t\tuint balance;\n\t\tfor(uint256 i = 0; i < stackers.length; i++){\n\n\t\t\taddress add;\n\t\t\tadd = stackers[i];\n\n\t\t\tbalance = stackAmount[add];\n\t\t\t\n\t\t\tif(balance > 0){\n\t\t\t\tdappToken.transfer(add, balance);\n\t\t\t}\n\t\t}\n\t}\n}\n",
  "sourcePath": "/home/sulaman/check/blockchain-app/src/contracts/TokenFarm.sol",
  "compiler": {
    "name": "solc",
    "version": "0.8.0+commit.c7dfd78e.Emscripten.clang"
  },
  "schemaVersion": "3.2.3",
  "updatedAt": "2021-05-22T00:05:24.530Z",
  "networkType": "ethereum",
  "devdoc": {
    "kind": "dev",
    "methods": {},
    "version": 1
  },
  "userdoc": {
    "kind": "user",
    "methods": {},
    "version": 1
  }
}