{
  "contractName": "TokenFarm",
  "abi": [
    {
      "inputs": [
        {
          "internalType": "contract DaiToken",
          "name": "_daiToken",
          "type": "address"
        },
        {
          "internalType": "contract DappToken",
          "name": "_dappToken",
          "type": "address"
        }
      ],
      "stateMutability": "nonpayable",
      "type": "constructor"
    },
    {
      "inputs": [
        {
          "internalType": "uint256",
          "name": "",
          "type": "uint256"
        }
      ],
      "name": "stackers",
      "outputs": [
        {
          "internalType": "address",
          "name": "",
          "type": "address"
        }
      ],
      "stateMutability": "view",
      "type": "function"
    },
    {
      "inputs": [
        {
          "internalType": "uint256",
          "name": "_value",
          "type": "uint256"
        }
      ],
      "name": "StackingToken",
      "outputs": [],
      "stateMutability": "nonpayable",
      "type": "function"
    },
    {
      "inputs": [],
      "name": "UnStackingToken",
      "outputs": [],
      "stateMutability": "nonpayable",
      "type": "function"
    },
    {
      "inputs": [],
      "name": "IssueToken",
      "outputs": [],
      "stateMutability": "nonpayable",
      "type": "function"
    }
  ],
  "bytecode": "0x60806040523480156200001157600080fd5b5060405162000cb438038062000cb48339818101604052810190620000379190620000ee565b816000806101000a81548173ffffffffffffffffffffffffffffffffffffffff021916908373ffffffffffffffffffffffffffffffffffffffff16021790555080600160006101000a81548173ffffffffffffffffffffffffffffffffffffffff021916908373ffffffffffffffffffffffffffffffffffffffff1602179055505050620001bf565b600081519050620000d1816200018b565b92915050565b600081519050620000e881620001a5565b92915050565b600080604083850312156200010257600080fd5b60006200011285828601620000c0565b92505060206200012585828601620000d7565b9150509250929050565b60006200013c826200016b565b9050919050565b600062000150826200012f565b9050919050565b600062000164826200012f565b9050919050565b600073ffffffffffffffffffffffffffffffffffffffff82169050919050565b620001968162000143565b8114620001a257600080fd5b50565b620001b08162000157565b8114620001bc57600080fd5b50565b610ae580620001cf6000396000f3fe608060405234801561001057600080fd5b5060043610610069576000357c010000000000000000000000000000000000000000000000000000000090048063ab54599e1461006e578063b9da4f2a14610078578063f454223814610094578063fb453e231461009e575b600080fd5b6100766100ce565b005b610092600480360381019061008d91906107fe565b610302565b005b61009c6105c1565b005b6100b860048036038101906100b391906107fe565b61076c565b6040516100c5919061089f565b60405180910390f35b600460003373ffffffffffffffffffffffffffffffffffffffff1673ffffffffffffffffffffffffffffffffffffffff16815260200190815260200160002060009054906101000a900460ff1661015a576040517f08c379a00000000000000000000000000000000000000000000000000000000081526004016101519061091a565b60405180910390fd5b60008054906101000a900473ffffffffffffffffffffffffffffffffffffffff1673ffffffffffffffffffffffffffffffffffffffff1663a9059cbb33600360003373ffffffffffffffffffffffffffffffffffffffff1673ffffffffffffffffffffffffffffffffffffffff168152602001908152602001600020546040518363ffffffff167c01000000000000000000000000000000000000000000000000000000000281526004016102109291906108f1565b602060405180830381600087803b15801561022a57600080fd5b505af115801561023e573d6000803e3d6000fd5b505050506040513d601f19601f8201168201806040525081019061026291906107d5565b506000600360003373ffffffffffffffffffffffffffffffffffffffff1673ffffffffffffffffffffffffffffffffffffffff168152602001908152602001600020819055506000600460003373ffffffffffffffffffffffffffffffffffffffff1673ffffffffffffffffffffffffffffffffffffffff16815260200190815260200160002060006101000a81548160ff021916908315150217905550565b600460003373ffffffffffffffffffffffffffffffffffffffff1673ffffffffffffffffffffffffffffffffffffffff16815260200190815260200160002060009054906101000a900460ff161561038f576040517f08c379a00000000000000000000000000000000000000000000000000000000081526004016103869061093a565b60405180910390fd5b80600360003373ffffffffffffffffffffffffffffffffffffffff1673ffffffffffffffffffffffffffffffffffffffff16815260200190815260200160002060008282546103de919061096b565b92505081905550600460003373ffffffffffffffffffffffffffffffffffffffff1673ffffffffffffffffffffffffffffffffffffffff16815260200190815260200160002060009054906101000a900460ff1661049a576002339080600181540180825580915050600190039060005260206000200160009091909190916101000a81548173ffffffffffffffffffffffffffffffffffffffff021916908373ffffffffffffffffffffffffffffffffffffffff1602179055505b60008054906101000a900473ffffffffffffffffffffffffffffffffffffffff1673ffffffffffffffffffffffffffffffffffffffff166323b872dd3330846040518463ffffffff167c0100000000000000000000000000000000000000000000000000000000028152600401610513939291906108ba565b602060405180830381600087803b15801561052d57600080fd5b505af1158015610541573d6000803e3d6000fd5b505050506040513d601f19601f8201168201806040525081019061056591906107d5565b506001600460003373ffffffffffffffffffffffffffffffffffffffff1673ffffffffffffffffffffffffffffffffffffffff16815260200190815260200160002060006101000a81548160ff02191690831515021790555050565b60005b6002805490508110156107695760006002828154811061060d577f4e487b7100000000000000000000000000000000000000000000000000000000600052603260045260246000fd5b9060005260206000200160009054906101000a900473ffffffffffffffffffffffffffffffffffffffff1690506000600360003373ffffffffffffffffffffffffffffffffffffffff1673ffffffffffffffffffffffffffffffffffffffff168152602001908152602001600020549050600081111561075457600160009054906101000a900473ffffffffffffffffffffffffffffffffffffffff1673ffffffffffffffffffffffffffffffffffffffff1663a9059cbb83836040518363ffffffff167c01000000000000000000000000000000000000000000000000000000000281526004016107009291906108f1565b602060405180830381600087803b15801561071a57600080fd5b505af115801561072e573d6000803e3d6000fd5b505050506040513d601f19601f8201168201806040525081019061075291906107d5565b505b5050808061076190610a09565b9150506105c4565b50565b6002818154811061077c57600080fd5b906000526020600020016000915054906101000a900473ffffffffffffffffffffffffffffffffffffffff1681565b6000815190506107ba81610a81565b92915050565b6000813590506107cf81610a98565b92915050565b6000602082840312156107e757600080fd5b60006107f5848285016107ab565b91505092915050565b60006020828403121561081057600080fd5b600061081e848285016107c0565b91505092915050565b610830816109c1565b82525050565b600061084360008361095a565b9150600082019050919050565b600061085d601f8361095a565b91507f596f75206861766520616c726561647920737461636b656420616d6f756e74006000830152602082019050919050565b610899816109ff565b82525050565b60006020820190506108b46000830184610827565b92915050565b60006060820190506108cf6000830186610827565b6108dc6020830185610827565b6108e96040830184610890565b949350505050565b60006040820190506109066000830185610827565b6109136020830184610890565b9392505050565b6000602082019050818103600083015261093381610836565b9050919050565b6000602082019050818103600083015261095381610850565b9050919050565b600082825260208201905092915050565b6000610976826109ff565b9150610981836109ff565b9250827fffffffffffffffffffffffffffffffffffffffffffffffffffffffffffffffff038211156109b6576109b5610a52565b5b828201905092915050565b60006109cc826109df565b9050919050565b60008115159050919050565b600073ffffffffffffffffffffffffffffffffffffffff82169050919050565b6000819050919050565b6000610a14826109ff565b91507fffffffffffffffffffffffffffffffffffffffffffffffffffffffffffffffff821415610a4757610a46610a52565b5b600182019050919050565b7f4e487b7100000000000000000000000000000000000000000000000000000000600052601160045260246000fd5b610a8a816109d3565b8114610a9557600080fd5b50565b610aa1816109ff565b8114610aac57600080fd5b5056fea264697066735822122061907e25174c670b772050aa48d199e36d71795e2e558935226b5c4f213ff94e64736f6c63430008000033",
  "immutableReferences": {},
  "source": "pragma solidity ^0.8.0;\n\nimport \"./DaiToken.sol\";\nimport \"./DappToken.sol\";\n\ncontract TokenFarm{\n    DaiToken daiToken;\n    DappToken dappToken;\n    \n    address[] public stackers;\n    mapping(address => uint) stackAmount;\n    mapping(address =>bool) hasStacked;\n\n    constructor(DaiToken _daiToken, DappToken _dappToken){\n        daiToken = _daiToken;\n        dappToken = _dappToken;\n    }\n\n    // Stacking\n    function StackingToken(uint _value) public{\n        require(!hasStacked[msg.sender], 'You have already stacked amount');\n        \n        stackAmount[msg.sender] += _value;\n        if(!hasStacked[msg.sender]){\n            stackers.push(msg.sender);\n        }\n   \n        //Investor send DAI amount to LiquidityPool\n        daiToken.transferFrom(msg.sender, address(this), _value);\n        hasStacked[msg.sender] = true;\n    }\n\n    // Unstaking\n    function UnStackingToken() public{\n        require(hasStacked[msg.sender], '');\n        //msg.sender.transfer(stackAmount[msg.sender]);\n        daiToken.transfer(msg.sender, stackAmount[msg.sender]);\n        stackAmount[msg.sender] = 0;\n        hasStacked[msg.sender] = false;\n    }\n    \n    // EarnReward\n    function IssueToken() public{\n        for(uint i=0; i<stackers.length; i++){\n            address inv = stackers[i];\n            uint amount = stackAmount[msg.sender];\n            if(amount > 0){\n                dappToken.transfer(inv, amount);\n            }\n        }       \n    }\n}\n",
  "sourcePath": "/home/sulaman/check/blockchain-app/src/contracts/TokenFarm.sol",
  "compiler": {
    "name": "solc",
    "version": "0.8.0+commit.c7dfd78e.Emscripten.clang"
  },
  "schemaVersion": "3.2.3",
  "updatedAt": "2021-05-20T21:39:58.279Z",
  "devdoc": {
    "kind": "dev",
    "methods": {},
    "version": 1
  },
  "userdoc": {
    "kind": "user",
    "methods": {},
    "version": 1
  }
}